:020000040800F2
:100000000028002031080008750700087D07000857
:10001000850700088D07000895070008000000000C
:100020000000000000000000000000009D07000824
:10003000A907000800000000B5070008C107000874
:10004000790800087908000879080008790800088C
:10005000790800087908000879080008790800087C
:10006000790800087908000879080008790800086C
:10007000790800087908000879080008790800085C
:10008000790800087908000879080008790800084C
:10009000790800087908000879080008790800083C
:1000A000790800087908000879080008790800082C
:1000B00079080008790800080000000079080008A5
:1000C000790800080000000000000000790800081E
:1000D000000000007908000879080008000000000E
:1000E0007908000879080008790800080000000075
:1000F0000000000000000000000000000000000000
:0C01000000000000000000005FF808F1A3
:10010C000348044B834202D0034B03B1184770479A
:10011C000C0000200C000020000000000548064BDD
:10012C001B1AD90F01EBA301491002D0034B03B1E9
:10013C00184770470C0000200C0000200000000045
:10014C0010B5064C237843B9FFF7DAFF044B13B113
:10015C000448AFF300800123237010BD0C00002075
:10016C00000000009816000808B5054B1BB10549A6
:10017C000548AFF30080BDE80840FFF7CFBF00BFD4
:10018C0000000000100000209816000880B582B016
:10019C0000AF7860C7F800C07B68092B00F2808143
:1001AC0001A252F823F000BFDD010008250200086F
:1001BC006D020008B5020008FD02000845030008A6
:1001CC008D030008D50300081D0400086504000811
:1001DC0000220121B74801F031F900220221B54873
:1001EC0001F02CF900220421B24801F027F9002279
:1001FC000821B04801F022F900221021AD4801F08D
:10020C001DF900222021AB4801F018F901224021F0
:10021C00A84801F013F949E101220121A54801F098
:10022C000DF900220221A34801F008F90022042153
:10023C00A04801F003F9012208219E4801F0FEF8C4
:10024C00012210219B4801F0F9F801222021994844
:10025C0001F0F4F801224021964801F0EFF825E175
:10026C0000220121934801F0E9F800220221914873
:10027C0001F0E4F8012204218E4801F0DFF800229D
:10028C0008218C4801F0DAF800221021894801F08D
:10029C00D5F801222021874801F0D0F80022402116
:1002AC00844801F0CBF801E100220121814801F0E2
:1002BC00C5F8002202217F4801F0C0F80022042179
:1002CC007C4801F0BBF8002208217A4801F0B6F80E
:1002DC0001221021774801F0B1F801222021754844
:1002EC0001F0ACF800224021724801F0A7F8DDE0E3
:1002FC00012201216F4801F0A1F8002202216D4872
:10030C0001F09CF8002204216A4801F097F80122C0
:10031C000821684801F092F801221021654801F08B
:10032C008DF800222021634801F088F8002240213A
:10033C00604801F083F8B9E0002201215D4801F02A
:10034C007DF8012202215B4801F078F8002204219B
:10035C00584801F073F800220821564801F06EF855
:10036C0001221021534801F069F800222021514844
:10037C0001F064F8002240214E4801F05FF895E04E
:10038C00002201214B4801F059F801220221494871
:10039C0001F054F800220421464801F04FF80022E5
:1003AC000821444801F04AF800221021414801F08C
:1003BC0045F8002220213F4801F040F8002240215E
:1003CC003C4801F03BF871E000220121394801F072
:1003DC0035F800220221374801F030F800220421C0
:1003EC00344801F02BF801220821324801F026F89C
:1003FC00012210212F4801F021F8012220212D4843
:10040C0001F01CF8012240212A4801F017F84DE0B8
:10041C0000220121274801F011F800220221254871
:10042C0001F00CF800220421224801F007F8002208
:10043C000821204801F002F8002210211D4800F08C
:10044C00FDFF002220211B4800F0F8FF0022402174
:10045C00184800F0F3FF29E000220121154800F0B4
:10046C00EDFF00220221134800F0E8FF00220421D6
:10047C00104800F0E3FF002208210E4800F0DEFFD8
:10048C00012210210B4800F0D9FF0022202109483D
:10049C0000F0D4FF00224021064800F0CFFF05E019
:1004AC0001227F21034800F0C9FF00BF00BF0837BD
:1004BC00BD4680BD000C014080B586B000AF07F191
:1004CC0020033B6000F0DAF900F0BAF800F0F4F821
:1004DC0000237B617B69002B01DC09237B610122FA
:1004EC002021564800F0AAFF00224021534800F07A
:1004FC00A5FF00228021514800F0A0FF0122042119
:10050C004E4800F09BFF002208214C4800F096FF5B
:10051C0000221021494800F091FF00233B610EE0BE
:10052C007B695A1E7A613A4694461846FFF72EFEAE
:10053C004FF47A7000F004FA3B6901333B613B697C
:10054C00022BEDDD002204213C4800F077FF012254
:10055C0008213A4800F072FF00221021374800F0C1
:10056C006DFF0023FB600EE07B695A1E7A613A46F0
:10057C0094461846FFF70AFE4FF47A7000F0E0F943
:10058C00FB680133FB60FB68012BEDDD00220421CD
:10059C002A4800F053FF00220821284800F04EFFA3
:1005AC0001221021254800F049FF00222021234878
:1005BC0000F044FF00224021204800F03FFF0122C0
:1005CC0080211E4800F03AFF0023BB600EE07B69DF
:1005DC005A1E7A613A4694461846FFF7D7FD4FF4F7
:1005EC007A7000F0ADF9BB680133BB60BB68022BBD
:1005FC00EDDD00222021114800F020FF01224021D6
:10060C000E4800F01BFF002280210C4800F016FF62
:10061C0000237B600EE07B695A1E7A613A46944651
:10062C001846FFF7B3FD4FF47A7000F089F97B6838
:10063C0001337B607B68012BEDDD4BE7000801404B
:10064C0080B590B000AF07F118032822002118469E
:10065C0000F0EFFF3B1D00221A605A609A60DA60CE
:10066C001A610223BB610123BB621023FB620023CE
:10067C007B6307F11803184600F086F90346002B3C
:10068C0001D000F06BF80F237B600023BB600023CC
:10069C00FB6000233B6100237B613B1D002118465E
:1006AC0000F0F4FB0346002B01D000F057F800BF1C
:1006BC004037BD4680BD000080B586B000AF07F165
:1006CC00080300221A605A609A60DA60204B9B691A
:1006DC001F4A43F0040393611D4B9B6903F0040311
:1006EC007B607B681A4B9B69194A43F00803936142
:1006FC00174B9B6903F008033B603B680022FC210D
:10070C00144800F09BFE00227F21134800F096FE57
:10071C00FC23BB600123FB6000233B6102237B6154
:10072C0007F1080319460B4800F00CFD7F23BB6052
:10073C000123FB6000233B6102237B6107F108036B
:10074C001946054800F0FEFC00BF1837BD4680BDB9
:10075C000010024000080140000C014080B400AFC2
:10076C0072B600BF00BFFDE780B400AF00BFFDE76D
:10077C0080B400AF00BFFDE780B400AF00BFFDE761
:10078C0080B400AF00BFFDE780B400AF00BFFDE751
:10079C0080B400AF00BFBD4680BC704780B400AFD2
:1007AC0000BFBD4680BC704780B400AF00BFBD46E3
:1007BC0080BC704780B500AF00F0A6F800BF80BDCC
:1007CC0080B485B000AF154B9B69144A43F001030C
:1007DC009361124B9B6903F00103BB60BB680F4B29
:1007EC00DB690E4A43F08053D3610C4BDB6903F099
:1007FC0080537B607B680A4B5B68FB60FB6823F073
:10080C00E063FB60FB6843F08063FB60044AFB68B9
:10081C00536000BF1437BD4680BC704700100240C7
:10082C000000014000F023F80B480C490C4A00234F
:10083C0002E0D458C4500433C4188C42F9D3094A8A
:10084C00094C002301E013600432A242FBD300F0F8
:10085C00F9FEFFF731FE7047000000200C0000206D
:10086C00DC1600080C0000202C000020FEE780B4F1
:10087C0000AF00BFBD4680BC7047000080B500AF24
:10088C00084B1B68074A43F010031360032000F069
:10089C009DFE0F2000F008F8FFF792FF002318468A
:1008AC0080BD00BF0020024080B582B000AF7860F0
:1008BC00124B1A68124B1B7819464FF47A73B3FB20
:1008CC00F1F3B2FBF3F3184600F0A7FE0346002B3E
:1008DC0001D001230EE07B680F2B0AD80022796827
:1008EC004FF0FF3000F07DFE064A7B68136000235A
:1008FC0000E0012318460837BD4680BD00000020EB
:10090C00080000200400002080B400AF054B1B78C9
:10091C001A46054B1B681344034A136000BFBD46BF
:10092C0080BC7047080000202800002080B400AF75
:10093C00024B1B681846BD4680BC7047280000203F
:10094C0080B584B000AF7860FFF7F0FFB8607B68CB
:10095C00FB60FB68B3F1FF3F05D00A4B1B781A46CE
:10096C00FB681344FB6000BFFFF7E0FF0246BB6867
:10097C00D31AFA689A42F7D800BF00BF1037BD46A9
:10098C0080BD00BF0800002080B586B000AF786045
:10099C007B68002B01D1012372E27B681B6803F09A
:1009AC000103002B00F08780924B5B6803F00C0373
:1009BC00042B0CD08F4B5B6803F00C03082B12D16B
:1009CC008C4B5B6803F48033B3F5803F0BD1894BC0
:1009DC001B6803F40033002B6CD07B685B68002B26
:1009EC0068D101234CE27B685B68B3F5803F06D18C
:1009FC00804B1B687F4A43F4803313602EE07B6886
:100A0C005B68002B0CD17B4B1B687A4A23F4803338
:100A1C001360784B1B68774A23F4802313601DE026
:100A2C007B685B68B3F5A02F0CD1724B1B68714AC5
:100A3C0043F4802313606F4B1B686E4A43F480337E
:100A4C0013600BE06B4B1B686A4A23F48033136012
:100A5C00684B1B68674A23F4802313607B685B68D0
:100A6C00002B13D0FFF762FF386108E0FFF75EFF41
:100A7C0002463B69D31A642B01D9032300E25D4B78
:100A8C001B6803F40033002BF0D014E0FFF74EFF8B
:100A9C00386108E0FFF74AFF02463B69D31A642B22
:100AAC0001D90323ECE1534B1B6803F40033002BF7
:100ABC00F0D100E000BF7B681B6803F00203002B41
:100ACC0063D04C4B5B6803F00C03002B0BD0494BF1
:100ADC005B6803F00C03082B1CD1464B5B6803F4DA
:100AEC008033002B16D1434B1B6803F00203002B01
:100AFC0005D07B681B69012B01D00123C0E13D4B64
:100B0C001B6823F0F8027B685B69DB0039491343EF
:100B1C000B603AE07B681B69002B20D0364B01221E
:100B2C001A60FFF703FF386108E0FFF7FFFE02468B
:100B3C003B69D31A022B01D90323A1E12D4B1B686E
:100B4C0003F00203002BF0D02A4B1B6823F0F802B1
:100B5C007B685B69DB00274913430B6015E0264B70
:100B6C0000221A60FFF7E2FE386108E0FFF7DEFEB4
:100B7C0002463B69D31A022B01D9032380E11D4B9A
:100B8C001B6803F00203002BF0D17B681B6803F099
:100B9C000803002B3AD07B689B69002B19D0174BAC
:100BAC0001221A60FFF7C2FE386108E0FFF7BEFEB3
:100BBC0002463B69D31A022B01D9032360E10D4B8A
:100BCC005B6A03F00203002BF0D0012000F09CFACA
:100BDC001CE00A4B00221A60FFF7A8FE38610FE0F8
:100BEC00FFF7A4FE02463B69D31A022B08D9032354
:100BFC0046E100BF00100240000042428004424225
:100C0C00924B5B6A03F00203002BE9D17B681B68F3
:100C1C0003F00403002B00F0A6800023FB758B4B24
:100C2C00DB6903F08053002B0DD1884BDB69874ABD
:100C3C0043F08053D361854BDB6903F08053BB6079
:100C4C00BB680123FB75824B1B6803F48073002B7C
:100C5C0018D17F4B1B687E4A43F480731360FFF7F7
:100C6C0065FE386108E0FFF761FE02463B69D31A66
:100C7C00642B01D9032303E1754B1B6803F48073C8
:100C8C00002BF0D07B68DB68012B06D16F4B1B6A05
:100C9C006E4A43F0010313622DE07B68DB68002B86
:100CAC000CD16A4B1B6A694A23F001031362674B30
:100CBC001B6A664A23F0040313621CE07B68DB6842
:100CCC00052B0CD1614B1B6A604A43F00403136281
:100CDC005E4B1B6A5D4A43F0010313620BE05B4BF6
:100CEC001B6A5A4A23F001031362584B1B6A574A7A
:100CFC0023F0040313627B68DB68002B15D0FFF72D
:100D0C0015FE38610AE0FFF711FE02463B69D31A63
:100D1C0041F28832934201D90323B1E04B4B1B6A59
:100D2C0003F00203002BEED014E0FFF7FFFD386157
:100D3C000AE0FFF7FBFD02463B69D31A41F2883209
:100D4C00934201D903239BE0404B1B6A03F002033F
:100D5C00002BEED1FB7D012B05D13C4BDB693B4AD3
:100D6C0023F08053D3617B68DB69002B00F0878014
:100D7C00364B5B6803F00C03082B61D07B68DB6996
:100D8C00022B46D1334B00221A60FFF7CFFD38619E
:100D9C0008E0FFF7CBFD02463B69D31A022B01D9C1
:100DAC0003236DE0294B1B6803F00073002BF0D17B
:100DBC007B681B6AB3F5803F08D1244B5B6823F436
:100DCC0000327B689B68214913434B601F4B5B6867
:100DDC0023F474127B68196A7B685B6A0B431B49AA
:100DEC0013434B601B4B01221A60FFF79FFD3861C8
:100DFC0008E0FFF79BFD02463B69D31A022B01D991
:100E0C0003233DE0114B1B6803F00073002BF0D063
:100E1C0035E0104B00221A60FFF788FD386108E0BE
:100E2C00FFF784FD02463B69D31A022B01D9032339
:100E3C0026E0064B1B6803F00073002BF0D11EE07C
:100E4C007B68DB69012B07D1012319E000100240FC
:100E5C0000700040600042420B4B5B68FB60FB681B
:100E6C0003F480327B681B6A9A4206D1FB6803F458
:100E7C0070127B685B6A9A4201D0012300E0002368
:100E8C0018461837BD4680BD0010024080B584B0AE
:100E9C0000AF786039607B68002B01D10123D0E072
:100EAC006A4B1B6803F007033A689A4210D9674BE8
:100EBC001B6823F0070265493B6813430B60634BC7
:100ECC001B6803F007033A689A4201D00123B8E08B
:100EDC007B681B6803F00203002B20D07B681B6827
:100EEC0003F00403002B05D0594B5B68584A43F4BC
:100EFC00E06353607B681B6803F00803002B05D08C
:100F0C00534B5B68524A43F460535360504B5B68DD
:100F1C0023F0F0027B689B684D4913434B607B6860
:100F2C001B6803F00103002B40D07B685B68012B2E
:100F3C0007D1474B1B6803F40033002B15D1012359
:100F4C007FE07B685B68022B07D1414B1B6803F089
:100F5C000073002B09D1012373E03D4B1B6803F098
:100F6C000203002B01D101236BE0394B5B6823F0AA
:100F7C0003027B685B68364913434B60FFF7D6FC72
:100F8C00F8600AE0FFF7D2FC0246FB68D31A41F284
:100F9C008832934201D9032353E02D4B5B6803F055
:100FAC000C027B685B689B009A42EBD1274B1B6859
:100FBC0003F007033A689A4210D2244B1B6823F0C3
:100FCC00070222493B6813430B60204B1B6803F05C
:100FDC0007033A689A4201D0012332E07B681B6810
:100FEC0003F00403002B08D0194B5B6823F4E06278
:100FFC007B68DB68164913434B607B681B6803F006
:10100C000803002B09D0124B5B6823F460527B68F9
:10101C001B69DB000E4913434B6000F021F80246BC
:10102C000B4B5B681B0903F00F030A49CB5C22FADC
:10103C0003F3094A1360094B1B681846FFF734FC8D
:10104C00002318461037BD4680BD00BF002002406B
:10105C0000100240B0160008000000200400002020
:10106C0080B487B000AF0023FB600023BB6000237B
:10107C007B6100237B6000233B611E4B5B68FB6044
:10108C00FB6803F00C03042B02D0082B03D027E0E1
:10109C00194B3B6127E0FB689B0C03F00F03174ACD
:1010AC00D35C7B60FB6803F48033002B10D0114BB6
:1010BC005B685B0C03F00103114AD35CBB607B687B
:1010CC000D4A03FB02F2BB68B2FBF3F37B6104E055
:1010DC007B680C4A02FB03F37B617B693B6102E09A
:1010EC00054B3B6100BF3B6918461C37BD4680BCB5
:1010FC00704700BF0010024000127A00C0160008B2
:10110C00D016000800093D0080B485B000AF7860AF
:10111C000A4B1B680A4AA2FB03235B0A7A6802FB90
:10112C0003F3FB6000BFFB685A1EFA60002BF9D179
:10113C0000BF00BF1437BD4680BC704700000020C4
:10114C00D34D621080B48BB000AF7860396000234F
:10115C007B6200233B6261E101227B6A02FA03F3AA
:10116C00FB613B681B68FA691340BB61BA69FB6998
:10117C009A4240F050813B685B68974A93425ED03C
:10118C00954A934275D8954A934258D0934A9342C4
:10119C006FD8934A934252D0914A934269D8914A5C
:1011AC0093424CD08F4A934263D88F4A934246D095
:1011BC008D4A93425DD8122B2AD8122B59D801A2F2
:1011CC0052F823F04B1200082512000837120008C1
:1011DC00791200087F1200087F1200087F120008A5
:1011EC007F1200087F1200087F1200087F1200088F
:1011FC007F1200087F1200087F1200087F1200087F
:10120C007F1200087F1200082D12000841120008FE
:10121C00764A934213D02CE03B68DB683B6229E0B2
:10122C003B68DB6804333B6224E03B68DB680833D3
:10123C003B621FE03B68DB680C333B621AE03B68A7
:10124C009B68002B02D104233B6213E03B689B6834
:10125C00012B05D108233B627B68FA691A6109E00E
:10126C0008233B627B68FA695A6103E000233B6206
:10127C0000E000BFBB69FF2B01D87B6801E07B68F5
:10128C0004337B61BB69FF2B02D87B6A9B0002E0B5
:10129C007B6A083B9B003B617B691A680F213B69A9
:1012AC0001FA03F3DB431A40396A3B6901FA03F391
:1012BC001A437B691A603B685B6803F08053002B10
:1012CC0000F0A9804A4B9B69494A43F001039361A2
:1012DC00474B9B6903F00103BB60BB68454A7B6AC3
:1012EC009B08023352F82330FB607B6A03F0030344
:1012FC009B000F2202FA03F3DB43FA681340FB60F6
:10130C007B683D4A93420DD07B683C4A934207D0A0
:10131C007B683B4A934201D1022304E0032302E0A1
:10132C00012300E000237A6A02F00302920093404A
:10133C00FA681343FB602F497B6A9B080233FA68F7
:10134C0041F823203B685B6803F48013002B06D024
:10135C002C4B9A682B49BB6913438B6006E0294BD5
:10136C009A68BB69DB43274913408B603B685B6819
:10137C0003F40013002B06D0224BDA682149BB6919
:10138C001343CB6006E01F4BDA68BB69DB431D4996
:10139C001340CB603B685B6803F40033002B06D032
:1013AC00184B5A681749BB6913434B6006E0154B41
:1013BC005A68BB69DB43134913404B603B685B685D
:1013CC0003F48033002B1FD00E4B1A680D49BB69F8
:1013DC0013430B601FE000BF0000321000003110FF
:1013EC00000022100000211000001210000011104B
:1013FC00001002400000014000080140000C0140B8
:10140C0000100140000401400B4B1A68BB69DB4320
:10141C00094913400B607B6A01337B623B681A6895
:10142C007B6A22FA03F3002B7FF496AE00BF00BF59
:10143C002C37BD4680BC70470004014080B483B09B
:10144C0000AF78600B467B8013467B707B78002B5B
:10145C0003D07A887B681A6103E07B881A047B6866
:10146C001A6100BF0C37BD4680BC704780B485B094
:10147C0000AF78607B6803F00703FB600C4BDB6804
:10148C00BB60BA684FF6FF031340BB60FB681A02DF
:10149C00BB68134343F0BF6343F40033BB60044A9F
:1014AC00BB68D36000BF1437BD4680BC704700BF1B
:1014BC0000ED00E080B400AF044BDB681B0A03F0C6
:1014CC0007031846BD4680BC704700BF00ED00E026
:1014DC0080B483B000AF03463960FB7197F90730D5
:1014EC00002B0ADB3B68DAB20C4997F90730120182
:1014FC00D2B20B4483F800230AE03B68DAB2084905
:10150C00FB7903F00F03043B1201D2B20B441A76A1
:10151C0000BF0C37BD4680BC704700BF00E100E047
:10152C0000ED00E080B489B000AFF860B9607A607B
:10153C00FB6803F00703FB61FB69C3F10703042B92
:10154C0028BF0423BB61FB690433062B02D9FB695A
:10155C00033B00E000237B614FF0FF32BB6902FAD2
:10156C0003F3DA43BB681A407B699A404FF0FF31B2
:10157C007B6901FA03F3D9437B680B40134318468C
:10158C002437BD4680BC704780B582B000AF786010
:10159C007B68013BB3F1807F01D301230FE00A4A42
:1015AC007B68013B53600F214FF0FF30FFF790FF3A
:1015BC00054B00229A60044B07221A600023184640
:1015CC000837BD4680BD00BF10E000E080B582B09A
:1015DC0000AF78607868FFF749FF00BF0837BD4659
:1015EC0080BD80B586B000AF0346B9607A60FB73EE
:1015FC0000237B61FFF75EFF78617A68B9687869D0
:10160C00FFF790FF024697F90F3011461846FFF787
:10161C005FFF00BF1837BD4680BD80B582B000AFFC
:10162C0078607868FFF7B0FF034618460837BD4668
:10163C0080BD03460244934200D1704703F8011B5E
:10164C00F9E7000070B500260C4D0D4B5B1B9C1090
:10165C00A64209D1002600F019F80A4D0A4B5B1B73
:10166C009C10A64205D170BD55F8043B9847013635
:10167C00EEE755F8043B98470136F2E7D41600081C
:10168C00D4160008D4160008D8160008F8B500BF08
:10169C00F8BC08BC9E467047F8B500BFF8BC08BC47
:0416AC009E4670479F
:1016B0000000000000000000010203040607080902
:1016C00002030405060708090A0B0C0D0E0F101083
:0416D0000102000013
:0416D4007501000894
:0416D8004D010008B8
:0C16DC0000127A00100000000100000065
:0400000508000831B6
:00000001FF
